{
  "_format": "hh-sol-artifact-1",
  "contractName": "CoffeeSupplyChain",
  "sourceName": "contracts/CoffeeSupplyChain.sol",
  "abi": [
    {
      "inputs": [],
      "stateMutability": "nonpayable",
      "type": "constructor"
    },
    {
      "anonymous": false,
      "inputs": [
        {
          "indexed": true,
          "internalType": "uint256",
          "name": "batchId",
          "type": "uint256"
        }
      ],
      "name": "BatchExported",
      "type": "event"
    },
    {
      "anonymous": false,
      "inputs": [
        {
          "indexed": true,
          "internalType": "uint256",
          "name": "batchId",
          "type": "uint256"
        },
        {
          "indexed": false,
          "internalType": "uint256",
          "name": "quantity",
          "type": "uint256"
        },
        {
          "indexed": false,
          "internalType": "uint256",
          "name": "productionDate",
          "type": "uint256"
        }
      ],
      "name": "BatchReceived",
      "type": "event"
    },
    {
      "anonymous": false,
      "inputs": [
        {
          "indexed": true,
          "internalType": "uint256",
          "name": "batchId",
          "type": "uint256"
        },
        {
          "indexed": true,
          "internalType": "address",
          "name": "buyer",
          "type": "address"
        },
        {
          "indexed": false,
          "internalType": "uint256",
          "name": "price",
          "type": "uint256"
        }
      ],
      "name": "BatchSold",
      "type": "event"
    },
    {
      "anonymous": false,
      "inputs": [
        {
          "indexed": true,
          "internalType": "address",
          "name": "buyer",
          "type": "address"
        }
      ],
      "name": "BuyerAuthorized",
      "type": "event"
    },
    {
      "anonymous": false,
      "inputs": [
        {
          "indexed": true,
          "internalType": "uint256",
          "name": "batchId",
          "type": "uint256"
        },
        {
          "indexed": false,
          "internalType": "string",
          "name": "quality",
          "type": "string"
        }
      ],
      "name": "QualityChecked",
      "type": "event"
    },
    {
      "inputs": [
        {
          "internalType": "address",
          "name": "_buyer",
          "type": "address"
        }
      ],
      "name": "authorizeBuyer",
      "outputs": [],
      "stateMutability": "nonpayable",
      "type": "function"
    },
    {
      "inputs": [
        {
          "internalType": "address",
          "name": "",
          "type": "address"
        }
      ],
      "name": "authorizedBuyers",
      "outputs": [
        {
          "internalType": "bool",
          "name": "",
          "type": "bool"
        }
      ],
      "stateMutability": "view",
      "type": "function"
    },
    {
      "inputs": [
        {
          "internalType": "uint256",
          "name": "",
          "type": "uint256"
        }
      ],
      "name": "batches",
      "outputs": [
        {
          "internalType": "uint256",
          "name": "id",
          "type": "uint256"
        },
        {
          "internalType": "uint256",
          "name": "productionDate",
          "type": "uint256"
        },
        {
          "internalType": "uint256",
          "name": "quantity",
          "type": "uint256"
        },
        {
          "internalType": "address",
          "name": "buyer",
          "type": "address"
        },
        {
          "internalType": "uint256",
          "name": "pricePerKg",
          "type": "uint256"
        },
        {
          "internalType": "bool",
          "name": "isPaid",
          "type": "bool"
        },
        {
          "internalType": "enum CoffeeSupplyChain.Stage",
          "name": "currentStage",
          "type": "uint8"
        },
        {
          "internalType": "string",
          "name": "quality",
          "type": "string"
        }
      ],
      "stateMutability": "view",
      "type": "function"
    },
    {
      "inputs": [
        {
          "internalType": "uint256",
          "name": "_batchId",
          "type": "uint256"
        }
      ],
      "name": "buyBatch",
      "outputs": [],
      "stateMutability": "payable",
      "type": "function"
    },
    {
      "inputs": [
        {
          "internalType": "uint256",
          "name": "_batchId",
          "type": "uint256"
        },
        {
          "internalType": "string",
          "name": "_quality",
          "type": "string"
        }
      ],
      "name": "checkQuality",
      "outputs": [],
      "stateMutability": "nonpayable",
      "type": "function"
    },
    {
      "inputs": [
        {
          "internalType": "uint256",
          "name": "_batchId",
          "type": "uint256"
        }
      ],
      "name": "getBatchDetails",
      "outputs": [
        {
          "internalType": "uint256",
          "name": "productionDate",
          "type": "uint256"
        },
        {
          "internalType": "uint256",
          "name": "quantity",
          "type": "uint256"
        },
        {
          "internalType": "address",
          "name": "buyer",
          "type": "address"
        },
        {
          "internalType": "uint256",
          "name": "pricePerKg",
          "type": "uint256"
        },
        {
          "internalType": "bool",
          "name": "isPaid",
          "type": "bool"
        },
        {
          "internalType": "enum CoffeeSupplyChain.Stage",
          "name": "currentStage",
          "type": "uint8"
        },
        {
          "internalType": "string",
          "name": "quality",
          "type": "string"
        }
      ],
      "stateMutability": "view",
      "type": "function"
    },
    {
      "inputs": [
        {
          "internalType": "uint256",
          "name": "_batchId",
          "type": "uint256"
        }
      ],
      "name": "markAsExported",
      "outputs": [],
      "stateMutability": "nonpayable",
      "type": "function"
    },
    {
      "inputs": [],
      "name": "owner",
      "outputs": [
        {
          "internalType": "address",
          "name": "",
          "type": "address"
        }
      ],
      "stateMutability": "view",
      "type": "function"
    },
    {
      "inputs": [
        {
          "internalType": "uint256",
          "name": "_batchId",
          "type": "uint256"
        },
        {
          "internalType": "uint256",
          "name": "_quantity",
          "type": "uint256"
        },
        {
          "internalType": "uint256",
          "name": "_productionDate",
          "type": "uint256"
        }
      ],
      "name": "receiveBatch",
      "outputs": [],
      "stateMutability": "nonpayable",
      "type": "function"
    }
  ],
  "bytecode": "0x6080806040523461002857600180546001600160a01b03191633179055610d97908161002e8239f35b600080fdfe6080604052600436101561001257600080fd5b60003560e01c80635893c2b21461091c578063746d1e57146107055780638da5cb5b146106dc57806394651d4b146105ad57806397d84aae1461056a5780639d47dcc014610451578063b32c4d8d146103ab578063c465a8a6146100fa5763ffe5f4321461007f57600080fd5b346100f55760203660031901126100f5576004356001600160a01b03818116918290036100f5576100b590600154163314610d0a565b8060005260026020526040600020600160ff198254161790557f69fb31571677d3849130965d7550d1a6b437ab6b46f7c3ae9cfc91b16897800d600080a2005b600080fd5b346100f55760403660031901126100f55760043560249081359167ffffffffffffffff908184116100f557366023850112156100f5578360040135908282116103345760405192602092601f19966101598589601f8501160187610c42565b818652368483830101116100f55781600092858793018389013786010152600161018d60018060a01b038254163314610d0a565b856000526000845260ff60056040600020015460081c16600481101561039657610348578560005260008452600660406000200192855192831161033457506101d68354610beb565b601f81116102eb575b508396601f831160011461026e57508180917f4e55db91c8438c201ab6cd210688ca54c80b7e90bd37fb2f8ae38a5573de1f549798600093610263575b501b916000199060031b1c19161790555b8360005260008152600560406000200161010061ff001982541617905561025e604051928284938452830190610bab565b0390a2005b87015192508961021c565b829192169683600052846000209060005b8981106102d65750827f4e55db91c8438c201ab6cd210688ca54c80b7e90bd37fb2f8ae38a5573de1f549899106102bd575b5050811b01905561022d565b86015160001960f88460031b161c1916905587806102b1565b8782015183559184019190860190860161027f565b8360005284600020601f840160051c81019186851061032a575b601f0160051c019082905b82811061031e5750506101df565b60008155018290610310565b9091508190610305565b634e487b7160e01b60009081526041600452fd5b60405162461bcd60e51b8152600481018590526021818501527f4261746368206d757374206265206174206578706f72742077617265686f75736044820152606560f81b6064820152608490fd5b83634e487b7160e01b60005260216004526000fd5b346100f55760203660031901126100f55760043560005260006020526040600020805461044d60018301549261043c60028201549160018060a01b03600382015416600482015490610404600660058501549401610c64565b946040519889988952602089015260408801526060870152608086015260ff8116151560a086015260ff60c086019160081c16610b9e565b6101008060e0850152830190610bab565b0390f35b346100f55760203660031901126100f5576004356000526000602052604060002060405161047e81610c25565b815481526001820154602082019081526002830154916040810192835260018060a01b03908160038601541694606082019586526004810154926080830193845260058201549460ff60a08501968181161515885260081c1660c085019360048210156105545760066104f69160e093875201610c64565b940193845251955196511692519351151590519060048210156105545761044d946105439351946040519889988952602089015260408801526060870152608086015260a0850190610b9e565b60e060c084015260e0830190610bab565b634e487b7160e01b600052602160045260246000fd5b346100f55760203660031901126100f5576004356001600160a01b038116908190036100f5576000526002602052602060ff604060002054166040519015158152f35b346100f5576020806003193601126100f557600435906105d860018060a01b03600154163314610d0a565b816000526000815260ff60056040600020015460081c1660048110156105545760020361069857816000526000815260ff600560406000200154161561065b5760009082825252600560406000200161030061ff00198254161790557f586856e6b747be72e754b2fd19f7441eb57022807de142013a1f5ad8819c46fe600080a2005b6064906040519062461bcd60e51b8252600482015260166024820152752130ba31b41036bab9ba103132903830b4b2103337b960511b6044820152fd5b6064906040519062461bcd60e51b82526004820152601860248201527f4261746368206d75737420626520736f6c6420666972737400000000000000006044820152fd5b346100f55760003660031901126100f5576001546040516001600160a01b039091168152602090f35b6020806003193601126100f557600435336000526002825260ff60406000205416156108c057806000526000825260ff60056040600020015460081c1660048110156105545760010361087b57600081815280835260409020600301546001600160a01b0316610841573415610808576000818152808352604090206003810180546001600160a01b031916331790556002015480156107f2576005908260005260008452604060002090340460048201550161020161ffff198254161790557f1c6fb67e373dfe734fd33111414a2a3caf3a4de5f0e460936fa99de852533ac9604051923484523393a3005b634e487b7160e01b600052601260045260246000fd5b60405162461bcd60e51b8152600481018390526011602482015270135d5cdd081cd95b99081c185e5b595b9d607a1b6044820152606490fd5b60405162461bcd60e51b815260048101839052601260248201527110985d18da08185b1c9958591e481cdbdb1960721b6044820152606490fd5b60405162461bcd60e51b815260048101839052601d60248201527f4261746368206d757374206265207175616c69747920636865636b65640000006044820152606490fd5b60405162461bcd60e51b815260048101839052602e60248201527f4f6e6c7920617574686f72697a6564206275796572732063616e20706572666f60448201526d3936903a3434b99030b1ba34b7b760911b6064820152608490fd5b346100f55760603660031901126100f55761094260018060a01b03600154163314610d0a565b60405161094e81610c25565b6004358152604435602082015260243560408201526000606082015260006080820152600060a0820152600060c082015260405180602081011067ffffffffffffffff602083011117610b8857602081016040526000815260e0820152600435600052600060205260406000208151815560208201516001820155604082015160028201556003810160018060a01b036060840151166bffffffffffffffffffffffff60a01b82541617905560808201516004820155600581019060a083015115159082549260c08501519260048410156105545760e09460ff61ff0060069660081b1692169061ffff1916171790550191015190815167ffffffffffffffff8111610b8857610a5e8254610beb565b601f8111610b40575b50602092601f8211600114610adc5792819293600092610ad1575b50508160011b916000199060031b1c19161790555b604051602435815260443560208201527fbf8f9d75d6c1819628347de72b00216c259fd8f658d0ee076a1ab176f4327faf604060043592a2005b015190508380610a82565b601f198216938360005260206000209160005b868110610b285750836001959610610b0f575b505050811b019055610a97565b015160001960f88460031b161c19169055838080610b02565b91926020600181928685015181550194019201610aef565b826000526020600020601f830160051c81019160208410610b7e575b601f0160051c01905b818110610b725750610a67565b60008155600101610b65565b9091508190610b5c565b634e487b7160e01b600052604160045260246000fd5b9060048210156105545752565b919082519283825260005b848110610bd7575050826000602080949584010152601f8019910116010190565b602081830181015184830182015201610bb6565b90600182811c92168015610c1b575b6020831014610c0557565b634e487b7160e01b600052602260045260246000fd5b91607f1691610bfa565b610100810190811067ffffffffffffffff821117610b8857604052565b90601f8019910116810190811067ffffffffffffffff821117610b8857604052565b9060405191826000825492610c7884610beb565b908184526001948581169081600014610ce75750600114610ca4575b5050610ca292500383610c42565b565b9093915060005260209081600020936000915b818310610ccf575050610ca293508201013880610c94565b85548884018501529485019487945091830191610cb7565b915050610ca294506020925060ff191682840152151560051b8201013880610c94565b15610d1157565b60405162461bcd60e51b815260206004820152602260248201527f4f6e6c79206f776e65722063616e20706572666f726d2074686973206163746960448201526137b760f11b6064820152608490fdfea26469706673582212201245158fcfee45b68778d9fc869c3bbc577358c432e4a89555e5e9136186b77264736f6c63430008130033",
  "linkReferences": {},
  "deployedLinkReferences": {}
}