{"contracts/CoffeeSupplyChain.sol":{"CoffeeSupplyChain":{"abi":[{"inputs":[],"stateMutability":"nonpayable","type":"constructor"},{"anonymous":false,"inputs":[{"indexed":true,"internalType":"uint256","name":"batchId","type":"uint256"}],"name":"BatchExported","type":"event"},{"anonymous":false,"inputs":[{"indexed":true,"internalType":"uint256","name":"batchId","type":"uint256"},{"indexed":false,"internalType":"uint256","name":"quantity","type":"uint256"},{"indexed":false,"internalType":"uint256","name":"productionDate","type":"uint256"}],"name":"BatchReceived","type":"event"},{"anonymous":false,"inputs":[{"indexed":true,"internalType":"uint256","name":"batchId","type":"uint256"},{"indexed":true,"internalType":"address","name":"buyer","type":"address"},{"indexed":false,"internalType":"uint256","name":"price","type":"uint256"}],"name":"BatchSold","type":"event"},{"anonymous":false,"inputs":[{"indexed":true,"internalType":"address","name":"buyer","type":"address"}],"name":"BuyerAuthorized","type":"event"},{"anonymous":false,"inputs":[{"indexed":true,"internalType":"uint256","name":"batchId","type":"uint256"},{"indexed":false,"internalType":"string","name":"quality","type":"string"}],"name":"QualityChecked","type":"event"},{"inputs":[{"internalType":"address","name":"_buyer","type":"address"}],"name":"authorizeBuyer","outputs":[],"stateMutability":"nonpayable","type":"function"},{"inputs":[{"internalType":"address","name":"","type":"address"}],"name":"authorizedBuyers","outputs":[{"internalType":"bool","name":"","type":"bool"}],"stateMutability":"view","type":"function"},{"inputs":[{"internalType":"uint256","name":"","type":"uint256"}],"name":"batches","outputs":[{"internalType":"uint256","name":"id","type":"uint256"},{"internalType":"uint256","name":"productionDate","type":"uint256"},{"internalType":"uint256","name":"quantity","type":"uint256"},{"internalType":"address","name":"buyer","type":"address"},{"internalType":"uint256","name":"pricePerKg","type":"uint256"},{"internalType":"bool","name":"isPaid","type":"bool"},{"internalType":"enum CoffeeSupplyChain.Stage","name":"currentStage","type":"uint8"},{"internalType":"string","name":"quality","type":"string"}],"stateMutability":"view","type":"function"},{"inputs":[{"internalType":"uint256","name":"_batchId","type":"uint256"}],"name":"buyBatch","outputs":[],"stateMutability":"payable","type":"function"},{"inputs":[{"internalType":"uint256","name":"_batchId","type":"uint256"},{"internalType":"string","name":"_quality","type":"string"}],"name":"checkQuality","outputs":[],"stateMutability":"nonpayable","type":"function"},{"inputs":[{"internalType":"uint256","name":"_batchId","type":"uint256"}],"name":"getBatchDetails","outputs":[{"internalType":"uint256","name":"productionDate","type":"uint256"},{"internalType":"uint256","name":"quantity","type":"uint256"},{"internalType":"address","name":"buyer","type":"address"},{"internalType":"uint256","name":"pricePerKg","type":"uint256"},{"internalType":"bool","name":"isPaid","type":"bool"},{"internalType":"enum CoffeeSupplyChain.Stage","name":"currentStage","type":"uint8"},{"internalType":"string","name":"quality","type":"string"}],"stateMutability":"view","type":"function"},{"inputs":[{"internalType":"uint256","name":"_batchId","type":"uint256"}],"name":"markAsExported","outputs":[],"stateMutability":"nonpayable","type":"function"},{"inputs":[],"name":"owner","outputs":[{"internalType":"address","name":"","type":"address"}],"stateMutability":"view","type":"function"},{"inputs":[{"internalType":"uint256","name":"_batchId","type":"uint256"},{"internalType":"uint256","name":"_quantity","type":"uint256"},{"internalType":"uint256","name":"_productionDate","type":"uint256"}],"name":"receiveBatch","outputs":[],"stateMutability":"nonpayable","type":"function"}],"evm":{"bytecode":{"linkReferences":{},"object":"6080806040523461002857600180546001600160a01b03191633179055610d97908161002e8239f35b600080fdfe6080604052600436101561001257600080fd5b60003560e01c80635893c2b21461091c578063746d1e57146107055780638da5cb5b146106dc57806394651d4b146105ad57806397d84aae1461056a5780639d47dcc014610451578063b32c4d8d146103ab578063c465a8a6146100fa5763ffe5f4321461007f57600080fd5b346100f55760203660031901126100f5576004356001600160a01b03818116918290036100f5576100b590600154163314610d0a565b8060005260026020526040600020600160ff198254161790557f69fb31571677d3849130965d7550d1a6b437ab6b46f7c3ae9cfc91b16897800d600080a2005b600080fd5b346100f55760403660031901126100f55760043560249081359167ffffffffffffffff908184116100f557366023850112156100f5578360040135908282116103345760405192602092601f19966101598589601f8501160187610c42565b818652368483830101116100f55781600092858793018389013786010152600161018d60018060a01b038254163314610d0a565b856000526000845260ff60056040600020015460081c16600481101561039657610348578560005260008452600660406000200192855192831161033457506101d68354610beb565b601f81116102eb575b508396601f831160011461026e57508180917f4e55db91c8438c201ab6cd210688ca54c80b7e90bd37fb2f8ae38a5573de1f549798600093610263575b501b916000199060031b1c19161790555b8360005260008152600560406000200161010061ff001982541617905561025e604051928284938452830190610bab565b0390a2005b87015192508961021c565b829192169683600052846000209060005b8981106102d65750827f4e55db91c8438c201ab6cd210688ca54c80b7e90bd37fb2f8ae38a5573de1f549899106102bd575b5050811b01905561022d565b86015160001960f88460031b161c1916905587806102b1565b8782015183559184019190860190860161027f565b8360005284600020601f840160051c81019186851061032a575b601f0160051c019082905b82811061031e5750506101df565b60008155018290610310565b9091508190610305565b634e487b7160e01b60009081526041600452fd5b60405162461bcd60e51b8152600481018590526021818501527f4261746368206d757374206265206174206578706f72742077617265686f75736044820152606560f81b6064820152608490fd5b83634e487b7160e01b60005260216004526000fd5b346100f55760203660031901126100f55760043560005260006020526040600020805461044d60018301549261043c60028201549160018060a01b03600382015416600482015490610404600660058501549401610c64565b946040519889988952602089015260408801526060870152608086015260ff8116151560a086015260ff60c086019160081c16610b9e565b6101008060e0850152830190610bab565b0390f35b346100f55760203660031901126100f5576004356000526000602052604060002060405161047e81610c25565b815481526001820154602082019081526002830154916040810192835260018060a01b03908160038601541694606082019586526004810154926080830193845260058201549460ff60a08501968181161515885260081c1660c085019360048210156105545760066104f69160e093875201610c64565b940193845251955196511692519351151590519060048210156105545761044d946105439351946040519889988952602089015260408801526060870152608086015260a0850190610b9e565b60e060c084015260e0830190610bab565b634e487b7160e01b600052602160045260246000fd5b346100f55760203660031901126100f5576004356001600160a01b038116908190036100f5576000526002602052602060ff604060002054166040519015158152f35b346100f5576020806003193601126100f557600435906105d860018060a01b03600154163314610d0a565b816000526000815260ff60056040600020015460081c1660048110156105545760020361069857816000526000815260ff600560406000200154161561065b5760009082825252600560406000200161030061ff00198254161790557f586856e6b747be72e754b2fd19f7441eb57022807de142013a1f5ad8819c46fe600080a2005b6064906040519062461bcd60e51b8252600482015260166024820152752130ba31b41036bab9ba103132903830b4b2103337b960511b6044820152fd5b6064906040519062461bcd60e51b82526004820152601860248201527f4261746368206d75737420626520736f6c6420666972737400000000000000006044820152fd5b346100f55760003660031901126100f5576001546040516001600160a01b039091168152602090f35b6020806003193601126100f557600435336000526002825260ff60406000205416156108c057806000526000825260ff60056040600020015460081c1660048110156105545760010361087b57600081815280835260409020600301546001600160a01b0316610841573415610808576000818152808352604090206003810180546001600160a01b031916331790556002015480156107f2576005908260005260008452604060002090340460048201550161020161ffff198254161790557f1c6fb67e373dfe734fd33111414a2a3caf3a4de5f0e460936fa99de852533ac9604051923484523393a3005b634e487b7160e01b600052601260045260246000fd5b60405162461bcd60e51b8152600481018390526011602482015270135d5cdd081cd95b99081c185e5b595b9d607a1b6044820152606490fd5b60405162461bcd60e51b815260048101839052601260248201527110985d18da08185b1c9958591e481cdbdb1960721b6044820152606490fd5b60405162461bcd60e51b815260048101839052601d60248201527f4261746368206d757374206265207175616c69747920636865636b65640000006044820152606490fd5b60405162461bcd60e51b815260048101839052602e60248201527f4f6e6c7920617574686f72697a6564206275796572732063616e20706572666f60448201526d3936903a3434b99030b1ba34b7b760911b6064820152608490fd5b346100f55760603660031901126100f55761094260018060a01b03600154163314610d0a565b60405161094e81610c25565b6004358152604435602082015260243560408201526000606082015260006080820152600060a0820152600060c082015260405180602081011067ffffffffffffffff602083011117610b8857602081016040526000815260e0820152600435600052600060205260406000208151815560208201516001820155604082015160028201556003810160018060a01b036060840151166bffffffffffffffffffffffff60a01b82541617905560808201516004820155600581019060a083015115159082549260c08501519260048410156105545760e09460ff61ff0060069660081b1692169061ffff1916171790550191015190815167ffffffffffffffff8111610b8857610a5e8254610beb565b601f8111610b40575b50602092601f8211600114610adc5792819293600092610ad1575b50508160011b916000199060031b1c19161790555b604051602435815260443560208201527fbf8f9d75d6c1819628347de72b00216c259fd8f658d0ee076a1ab176f4327faf604060043592a2005b015190508380610a82565b601f198216938360005260206000209160005b868110610b285750836001959610610b0f575b505050811b019055610a97565b015160001960f88460031b161c19169055838080610b02565b91926020600181928685015181550194019201610aef565b826000526020600020601f830160051c81019160208410610b7e575b601f0160051c01905b818110610b725750610a67565b60008155600101610b65565b9091508190610b5c565b634e487b7160e01b600052604160045260246000fd5b9060048210156105545752565b919082519283825260005b848110610bd7575050826000602080949584010152601f8019910116010190565b602081830181015184830182015201610bb6565b90600182811c92168015610c1b575b6020831014610c0557565b634e487b7160e01b600052602260045260246000fd5b91607f1691610bfa565b610100810190811067ffffffffffffffff821117610b8857604052565b90601f8019910116810190811067ffffffffffffffff821117610b8857604052565b9060405191826000825492610c7884610beb565b908184526001948581169081600014610ce75750600114610ca4575b5050610ca292500383610c42565b565b9093915060005260209081600020936000915b818310610ccf575050610ca293508201013880610c94565b85548884018501529485019487945091830191610cb7565b915050610ca294506020925060ff191682840152151560051b8201013880610c94565b15610d1157565b60405162461bcd60e51b815260206004820152602260248201527f4f6e6c79206f776e65722063616e20706572666f726d2074686973206163746960448201526137b760f11b6064820152608490fdfea26469706673582212201245158fcfee45b68778d9fc869c3bbc577358c432e4a89555e5e9136186b77264736f6c63430008130033","opcodes":"PUSH1 0x80 DUP1 PUSH1 0x40 MSTORE CALLVALUE PUSH2 0x28 JUMPI PUSH1 0x1 DUP1 SLOAD PUSH1 0x1 PUSH1 0x1 PUSH1 0xA0 SHL SUB NOT AND CALLER OR SWAP1 SSTORE PUSH2 0xD97 SWAP1 DUP2 PUSH2 0x2E DUP3 CODECOPY RETURN JUMPDEST PUSH1 0x0 DUP1 REVERT INVALID PUSH1 0x80 PUSH1 0x40 MSTORE PUSH1 0x4 CALLDATASIZE LT ISZERO PUSH2 0x12 JUMPI PUSH1 0x0 DUP1 REVERT JUMPDEST PUSH1 0x0 CALLDATALOAD PUSH1 0xE0 SHR DUP1 PUSH4 0x5893C2B2 EQ PUSH2 0x91C JUMPI DUP1 PUSH4 0x746D1E57 EQ PUSH2 0x705 JUMPI DUP1 PUSH4 0x8DA5CB5B EQ PUSH2 0x6DC JUMPI DUP1 PUSH4 0x94651D4B EQ PUSH2 0x5AD JUMPI DUP1 PUSH4 0x97D84AAE EQ PUSH2 0x56A JUMPI DUP1 PUSH4 0x9D47DCC0 EQ PUSH2 0x451 JUMPI DUP1 PUSH4 0xB32C4D8D EQ PUSH2 0x3AB JUMPI DUP1 PUSH4 0xC465A8A6 EQ PUSH2 0xFA JUMPI PUSH4 0xFFE5F432 EQ PUSH2 0x7F JUMPI PUSH1 0x0 DUP1 REVERT JUMPDEST CALLVALUE PUSH2 0xF5 JUMPI PUSH1 0x20 CALLDATASIZE PUSH1 0x3 NOT ADD SLT PUSH2 0xF5 JUMPI PUSH1 0x4 CALLDATALOAD PUSH1 0x1 PUSH1 0x1 PUSH1 0xA0 SHL SUB DUP2 DUP2 AND SWAP2 DUP3 SWAP1 SUB PUSH2 0xF5 JUMPI PUSH2 0xB5 SWAP1 PUSH1 0x1 SLOAD AND CALLER EQ PUSH2 0xD0A JUMP JUMPDEST DUP1 PUSH1 0x0 MSTORE PUSH1 0x2 PUSH1 0x20 MSTORE PUSH1 0x40 PUSH1 0x0 KECCAK256 PUSH1 0x1 PUSH1 0xFF NOT DUP3 SLOAD AND OR SWAP1 SSTORE PUSH32 0x69FB31571677D3849130965D7550D1A6B437AB6B46F7C3AE9CFC91B16897800D PUSH1 0x0 DUP1 LOG2 STOP JUMPDEST PUSH1 0x0 DUP1 REVERT JUMPDEST CALLVALUE PUSH2 0xF5 JUMPI PUSH1 0x40 CALLDATASIZE PUSH1 0x3 NOT ADD SLT PUSH2 0xF5 JUMPI PUSH1 0x4 CALLDATALOAD PUSH1 0x24 SWAP1 DUP2 CALLDATALOAD SWAP2 PUSH8 0xFFFFFFFFFFFFFFFF SWAP1 DUP2 DUP5 GT PUSH2 0xF5 JUMPI CALLDATASIZE PUSH1 0x23 DUP6 ADD SLT ISZERO PUSH2 0xF5 JUMPI DUP4 PUSH1 0x4 ADD CALLDATALOAD SWAP1 DUP3 DUP3 GT PUSH2 0x334 JUMPI PUSH1 0x40 MLOAD SWAP3 PUSH1 0x20 SWAP3 PUSH1 0x1F NOT SWAP7 PUSH2 0x159 DUP6 DUP10 PUSH1 0x1F DUP6 ADD AND ADD DUP8 PUSH2 0xC42 JUMP JUMPDEST DUP2 DUP7 MSTORE CALLDATASIZE DUP5 DUP4 DUP4 ADD ADD GT PUSH2 0xF5 JUMPI DUP2 PUSH1 0x0 SWAP3 DUP6 DUP8 SWAP4 ADD DUP4 DUP10 ADD CALLDATACOPY DUP7 ADD ADD MSTORE PUSH1 0x1 PUSH2 0x18D PUSH1 0x1 DUP1 PUSH1 0xA0 SHL SUB DUP3 SLOAD AND CALLER EQ PUSH2 0xD0A JUMP JUMPDEST DUP6 PUSH1 0x0 MSTORE PUSH1 0x0 DUP5 MSTORE PUSH1 0xFF PUSH1 0x5 PUSH1 0x40 PUSH1 0x0 KECCAK256 ADD SLOAD PUSH1 0x8 SHR AND PUSH1 0x4 DUP2 LT ISZERO PUSH2 0x396 JUMPI PUSH2 0x348 JUMPI DUP6 PUSH1 0x0 MSTORE PUSH1 0x0 DUP5 MSTORE PUSH1 0x6 PUSH1 0x40 PUSH1 0x0 KECCAK256 ADD SWAP3 DUP6 MLOAD SWAP3 DUP4 GT PUSH2 0x334 JUMPI POP PUSH2 0x1D6 DUP4 SLOAD PUSH2 0xBEB JUMP JUMPDEST PUSH1 0x1F DUP2 GT PUSH2 0x2EB JUMPI JUMPDEST POP DUP4 SWAP7 PUSH1 0x1F DUP4 GT PUSH1 0x1 EQ PUSH2 0x26E JUMPI POP DUP2 DUP1 SWAP2 PUSH32 0x4E55DB91C8438C201AB6CD210688CA54C80B7E90BD37FB2F8AE38A5573DE1F54 SWAP8 SWAP9 PUSH1 0x0 SWAP4 PUSH2 0x263 JUMPI JUMPDEST POP SHL SWAP2 PUSH1 0x0 NOT SWAP1 PUSH1 0x3 SHL SHR NOT AND OR SWAP1 SSTORE JUMPDEST DUP4 PUSH1 0x0 MSTORE PUSH1 0x0 DUP2 MSTORE PUSH1 0x5 PUSH1 0x40 PUSH1 0x0 KECCAK256 ADD PUSH2 0x100 PUSH2 0xFF00 NOT DUP3 SLOAD AND OR SWAP1 SSTORE PUSH2 0x25E PUSH1 0x40 MLOAD SWAP3 DUP3 DUP5 SWAP4 DUP5 MSTORE DUP4 ADD SWAP1 PUSH2 0xBAB JUMP JUMPDEST SUB SWAP1 LOG2 STOP JUMPDEST DUP8 ADD MLOAD SWAP3 POP DUP10 PUSH2 0x21C JUMP JUMPDEST DUP3 SWAP2 SWAP3 AND SWAP7 DUP4 PUSH1 0x0 MSTORE DUP5 PUSH1 0x0 KECCAK256 SWAP1 PUSH1 0x0 JUMPDEST DUP10 DUP2 LT PUSH2 0x2D6 JUMPI POP DUP3 PUSH32 0x4E55DB91C8438C201AB6CD210688CA54C80B7E90BD37FB2F8AE38A5573DE1F54 SWAP9 SWAP10 LT PUSH2 0x2BD JUMPI JUMPDEST POP POP DUP2 SHL ADD SWAP1 SSTORE PUSH2 0x22D JUMP JUMPDEST DUP7 ADD MLOAD PUSH1 0x0 NOT PUSH1 0xF8 DUP5 PUSH1 0x3 SHL AND SHR NOT AND SWAP1 SSTORE DUP8 DUP1 PUSH2 0x2B1 JUMP JUMPDEST DUP8 DUP3 ADD MLOAD DUP4 SSTORE SWAP2 DUP5 ADD SWAP2 SWAP1 DUP7 ADD SWAP1 DUP7 ADD PUSH2 0x27F JUMP JUMPDEST DUP4 PUSH1 0x0 MSTORE DUP5 PUSH1 0x0 KECCAK256 PUSH1 0x1F DUP5 ADD PUSH1 0x5 SHR DUP2 ADD SWAP2 DUP7 DUP6 LT PUSH2 0x32A JUMPI JUMPDEST PUSH1 0x1F ADD PUSH1 0x5 SHR ADD SWAP1 DUP3 SWAP1 JUMPDEST DUP3 DUP2 LT PUSH2 0x31E JUMPI POP POP PUSH2 0x1DF JUMP JUMPDEST PUSH1 0x0 DUP2 SSTORE ADD DUP3 SWAP1 PUSH2 0x310 JUMP JUMPDEST SWAP1 SWAP2 POP DUP2 SWAP1 PUSH2 0x305 JUMP JUMPDEST PUSH4 0x4E487B71 PUSH1 0xE0 SHL PUSH1 0x0 SWAP1 DUP2 MSTORE PUSH1 0x41 PUSH1 0x4 MSTORE REVERT JUMPDEST PUSH1 0x40 MLOAD PUSH3 0x461BCD PUSH1 0xE5 SHL DUP2 MSTORE PUSH1 0x4 DUP2 ADD DUP6 SWAP1 MSTORE PUSH1 0x21 DUP2 DUP6 ADD MSTORE PUSH32 0x4261746368206D757374206265206174206578706F72742077617265686F7573 PUSH1 0x44 DUP3 ADD MSTORE PUSH1 0x65 PUSH1 0xF8 SHL PUSH1 0x64 DUP3 ADD MSTORE PUSH1 0x84 SWAP1 REVERT JUMPDEST DUP4 PUSH4 0x4E487B71 PUSH1 0xE0 SHL PUSH1 0x0 MSTORE PUSH1 0x21 PUSH1 0x4 MSTORE PUSH1 0x0 REVERT JUMPDEST CALLVALUE PUSH2 0xF5 JUMPI PUSH1 0x20 CALLDATASIZE PUSH1 0x3 NOT ADD SLT PUSH2 0xF5 JUMPI PUSH1 0x4 CALLDATALOAD PUSH1 0x0 MSTORE PUSH1 0x0 PUSH1 0x20 MSTORE PUSH1 0x40 PUSH1 0x0 KECCAK256 DUP1 SLOAD PUSH2 0x44D PUSH1 0x1 DUP4 ADD SLOAD SWAP3 PUSH2 0x43C PUSH1 0x2 DUP3 ADD SLOAD SWAP2 PUSH1 0x1 DUP1 PUSH1 0xA0 SHL SUB PUSH1 0x3 DUP3 ADD SLOAD AND PUSH1 0x4 DUP3 ADD SLOAD SWAP1 PUSH2 0x404 PUSH1 0x6 PUSH1 0x5 DUP6 ADD SLOAD SWAP5 ADD PUSH2 0xC64 JUMP JUMPDEST SWAP5 PUSH1 0x40 MLOAD SWAP9 DUP10 SWAP9 DUP10 MSTORE PUSH1 0x20 DUP10 ADD MSTORE PUSH1 0x40 DUP9 ADD MSTORE PUSH1 0x60 DUP8 ADD MSTORE PUSH1 0x80 DUP7 ADD MSTORE PUSH1 0xFF DUP2 AND ISZERO ISZERO PUSH1 0xA0 DUP7 ADD MSTORE PUSH1 0xFF PUSH1 0xC0 DUP7 ADD SWAP2 PUSH1 0x8 SHR AND PUSH2 0xB9E JUMP JUMPDEST PUSH2 0x100 DUP1 PUSH1 0xE0 DUP6 ADD MSTORE DUP4 ADD SWAP1 PUSH2 0xBAB JUMP JUMPDEST SUB SWAP1 RETURN JUMPDEST CALLVALUE PUSH2 0xF5 JUMPI PUSH1 0x20 CALLDATASIZE PUSH1 0x3 NOT ADD SLT PUSH2 0xF5 JUMPI PUSH1 0x4 CALLDATALOAD PUSH1 0x0 MSTORE PUSH1 0x0 PUSH1 0x20 MSTORE PUSH1 0x40 PUSH1 0x0 KECCAK256 PUSH1 0x40 MLOAD PUSH2 0x47E DUP2 PUSH2 0xC25 JUMP JUMPDEST DUP2 SLOAD DUP2 MSTORE PUSH1 0x1 DUP3 ADD SLOAD PUSH1 0x20 DUP3 ADD SWAP1 DUP2 MSTORE PUSH1 0x2 DUP4 ADD SLOAD SWAP2 PUSH1 0x40 DUP2 ADD SWAP3 DUP4 MSTORE PUSH1 0x1 DUP1 PUSH1 0xA0 SHL SUB SWAP1 DUP2 PUSH1 0x3 DUP7 ADD SLOAD AND SWAP5 PUSH1 0x60 DUP3 ADD SWAP6 DUP7 MSTORE PUSH1 0x4 DUP2 ADD SLOAD SWAP3 PUSH1 0x80 DUP4 ADD SWAP4 DUP5 MSTORE PUSH1 0x5 DUP3 ADD SLOAD SWAP5 PUSH1 0xFF PUSH1 0xA0 DUP6 ADD SWAP7 DUP2 DUP2 AND ISZERO ISZERO DUP9 MSTORE PUSH1 0x8 SHR AND PUSH1 0xC0 DUP6 ADD SWAP4 PUSH1 0x4 DUP3 LT ISZERO PUSH2 0x554 JUMPI PUSH1 0x6 PUSH2 0x4F6 SWAP2 PUSH1 0xE0 SWAP4 DUP8 MSTORE ADD PUSH2 0xC64 JUMP JUMPDEST SWAP5 ADD SWAP4 DUP5 MSTORE MLOAD SWAP6 MLOAD SWAP7 MLOAD AND SWAP3 MLOAD SWAP4 MLOAD ISZERO ISZERO SWAP1 MLOAD SWAP1 PUSH1 0x4 DUP3 LT ISZERO PUSH2 0x554 JUMPI PUSH2 0x44D SWAP5 PUSH2 0x543 SWAP4 MLOAD SWAP5 PUSH1 0x40 MLOAD SWAP9 DUP10 SWAP9 DUP10 MSTORE PUSH1 0x20 DUP10 ADD MSTORE PUSH1 0x40 DUP9 ADD MSTORE PUSH1 0x60 DUP8 ADD MSTORE PUSH1 0x80 DUP7 ADD MSTORE PUSH1 0xA0 DUP6 ADD SWAP1 PUSH2 0xB9E JUMP JUMPDEST PUSH1 0xE0 PUSH1 0xC0 DUP5 ADD MSTORE PUSH1 0xE0 DUP4 ADD SWAP1 PUSH2 0xBAB JUMP JUMPDEST PUSH4 0x4E487B71 PUSH1 0xE0 SHL PUSH1 0x0 MSTORE PUSH1 0x21 PUSH1 0x4 MSTORE PUSH1 0x24 PUSH1 0x0 REVERT JUMPDEST CALLVALUE PUSH2 0xF5 JUMPI PUSH1 0x20 CALLDATASIZE PUSH1 0x3 NOT ADD SLT PUSH2 0xF5 JUMPI PUSH1 0x4 CALLDATALOAD PUSH1 0x1 PUSH1 0x1 PUSH1 0xA0 SHL SUB DUP2 AND SWAP1 DUP2 SWAP1 SUB PUSH2 0xF5 JUMPI PUSH1 0x0 MSTORE PUSH1 0x2 PUSH1 0x20 MSTORE PUSH1 0x20 PUSH1 0xFF PUSH1 0x40 PUSH1 0x0 KECCAK256 SLOAD AND PUSH1 0x40 MLOAD SWAP1 ISZERO ISZERO DUP2 MSTORE RETURN JUMPDEST CALLVALUE PUSH2 0xF5 JUMPI PUSH1 0x20 DUP1 PUSH1 0x3 NOT CALLDATASIZE ADD SLT PUSH2 0xF5 JUMPI PUSH1 0x4 CALLDATALOAD SWAP1 PUSH2 0x5D8 PUSH1 0x1 DUP1 PUSH1 0xA0 SHL SUB PUSH1 0x1 SLOAD AND CALLER EQ PUSH2 0xD0A JUMP JUMPDEST DUP2 PUSH1 0x0 MSTORE PUSH1 0x0 DUP2 MSTORE PUSH1 0xFF PUSH1 0x5 PUSH1 0x40 PUSH1 0x0 KECCAK256 ADD SLOAD PUSH1 0x8 SHR AND PUSH1 0x4 DUP2 LT ISZERO PUSH2 0x554 JUMPI PUSH1 0x2 SUB PUSH2 0x698 JUMPI DUP2 PUSH1 0x0 MSTORE PUSH1 0x0 DUP2 MSTORE PUSH1 0xFF PUSH1 0x5 PUSH1 0x40 PUSH1 0x0 KECCAK256 ADD SLOAD AND ISZERO PUSH2 0x65B JUMPI PUSH1 0x0 SWAP1 DUP3 DUP3 MSTORE MSTORE PUSH1 0x5 PUSH1 0x40 PUSH1 0x0 KECCAK256 ADD PUSH2 0x300 PUSH2 0xFF00 NOT DUP3 SLOAD AND OR SWAP1 SSTORE PUSH32 0x586856E6B747BE72E754B2FD19F7441EB57022807DE142013A1F5AD8819C46FE PUSH1 0x0 DUP1 LOG2 STOP JUMPDEST PUSH1 0x64 SWAP1 PUSH1 0x40 MLOAD SWAP1 PUSH3 0x461BCD PUSH1 0xE5 SHL DUP3 MSTORE PUSH1 0x4 DUP3 ADD MSTORE PUSH1 0x16 PUSH1 0x24 DUP3 ADD MSTORE PUSH22 0x2130BA31B41036BAB9BA103132903830B4B2103337B9 PUSH1 0x51 SHL PUSH1 0x44 DUP3 ADD MSTORE REVERT JUMPDEST PUSH1 0x64 SWAP1 PUSH1 0x40 MLOAD SWAP1 PUSH3 0x461BCD PUSH1 0xE5 SHL DUP3 MSTORE PUSH1 0x4 DUP3 ADD MSTORE PUSH1 0x18 PUSH1 0x24 DUP3 ADD MSTORE PUSH32 0x4261746368206D75737420626520736F6C642066697273740000000000000000 PUSH1 0x44 DUP3 ADD MSTORE REVERT JUMPDEST CALLVALUE PUSH2 0xF5 JUMPI PUSH1 0x0 CALLDATASIZE PUSH1 0x3 NOT ADD SLT PUSH2 0xF5 JUMPI PUSH1 0x1 SLOAD PUSH1 0x40 MLOAD PUSH1 0x1 PUSH1 0x1 PUSH1 0xA0 SHL SUB SWAP1 SWAP2 AND DUP2 MSTORE PUSH1 0x20 SWAP1 RETURN JUMPDEST PUSH1 0x20 DUP1 PUSH1 0x3 NOT CALLDATASIZE ADD SLT PUSH2 0xF5 JUMPI PUSH1 0x4 CALLDATALOAD CALLER PUSH1 0x0 MSTORE PUSH1 0x2 DUP3 MSTORE PUSH1 0xFF PUSH1 0x40 PUSH1 0x0 KECCAK256 SLOAD AND ISZERO PUSH2 0x8C0 JUMPI DUP1 PUSH1 0x0 MSTORE PUSH1 0x0 DUP3 MSTORE PUSH1 0xFF PUSH1 0x5 PUSH1 0x40 PUSH1 0x0 KECCAK256 ADD SLOAD PUSH1 0x8 SHR AND PUSH1 0x4 DUP2 LT ISZERO PUSH2 0x554 JUMPI PUSH1 0x1 SUB PUSH2 0x87B JUMPI PUSH1 0x0 DUP2 DUP2 MSTORE DUP1 DUP4 MSTORE PUSH1 0x40 SWAP1 KECCAK256 PUSH1 0x3 ADD SLOAD PUSH1 0x1 PUSH1 0x1 PUSH1 0xA0 SHL SUB AND PUSH2 0x841 JUMPI CALLVALUE ISZERO PUSH2 0x808 JUMPI PUSH1 0x0 DUP2 DUP2 MSTORE DUP1 DUP4 MSTORE PUSH1 0x40 SWAP1 KECCAK256 PUSH1 0x3 DUP2 ADD DUP1 SLOAD PUSH1 0x1 PUSH1 0x1 PUSH1 0xA0 SHL SUB NOT AND CALLER OR SWAP1 SSTORE PUSH1 0x2 ADD SLOAD DUP1 ISZERO PUSH2 0x7F2 JUMPI PUSH1 0x5 SWAP1 DUP3 PUSH1 0x0 MSTORE PUSH1 0x0 DUP5 MSTORE PUSH1 0x40 PUSH1 0x0 KECCAK256 SWAP1 CALLVALUE DIV PUSH1 0x4 DUP3 ADD SSTORE ADD PUSH2 0x201 PUSH2 0xFFFF NOT DUP3 SLOAD AND OR SWAP1 SSTORE PUSH32 0x1C6FB67E373DFE734FD33111414A2A3CAF3A4DE5F0E460936FA99DE852533AC9 PUSH1 0x40 MLOAD SWAP3 CALLVALUE DUP5 MSTORE CALLER SWAP4 LOG3 STOP JUMPDEST PUSH4 0x4E487B71 PUSH1 0xE0 SHL PUSH1 0x0 MSTORE PUSH1 0x12 PUSH1 0x4 MSTORE PUSH1 0x24 PUSH1 0x0 REVERT JUMPDEST PUSH1 0x40 MLOAD PUSH3 0x461BCD PUSH1 0xE5 SHL DUP2 MSTORE PUSH1 0x4 DUP2 ADD DUP4 SWAP1 MSTORE PUSH1 0x11 PUSH1 0x24 DUP3 ADD MSTORE PUSH17 0x135D5CDD081CD95B99081C185E5B595B9D PUSH1 0x7A SHL PUSH1 0x44 DUP3 ADD MSTORE PUSH1 0x64 SWAP1 REVERT JUMPDEST PUSH1 0x40 MLOAD PUSH3 0x461BCD PUSH1 0xE5 SHL DUP2 MSTORE PUSH1 0x4 DUP2 ADD DUP4 SWAP1 MSTORE PUSH1 0x12 PUSH1 0x24 DUP3 ADD MSTORE PUSH18 0x10985D18DA08185B1C9958591E481CDBDB19 PUSH1 0x72 SHL PUSH1 0x44 DUP3 ADD MSTORE PUSH1 0x64 SWAP1 REVERT JUMPDEST PUSH1 0x40 MLOAD PUSH3 0x461BCD PUSH1 0xE5 SHL DUP2 MSTORE PUSH1 0x4 DUP2 ADD DUP4 SWAP1 MSTORE PUSH1 0x1D PUSH1 0x24 DUP3 ADD MSTORE PUSH32 0x4261746368206D757374206265207175616C69747920636865636B6564000000 PUSH1 0x44 DUP3 ADD MSTORE PUSH1 0x64 SWAP1 REVERT JUMPDEST PUSH1 0x40 MLOAD PUSH3 0x461BCD PUSH1 0xE5 SHL DUP2 MSTORE PUSH1 0x4 DUP2 ADD DUP4 SWAP1 MSTORE PUSH1 0x2E PUSH1 0x24 DUP3 ADD MSTORE PUSH32 0x4F6E6C7920617574686F72697A6564206275796572732063616E20706572666F PUSH1 0x44 DUP3 ADD MSTORE PUSH14 0x3936903A3434B99030B1BA34B7B7 PUSH1 0x91 SHL PUSH1 0x64 DUP3 ADD MSTORE PUSH1 0x84 SWAP1 REVERT JUMPDEST CALLVALUE PUSH2 0xF5 JUMPI PUSH1 0x60 CALLDATASIZE PUSH1 0x3 NOT ADD SLT PUSH2 0xF5 JUMPI PUSH2 0x942 PUSH1 0x1 DUP1 PUSH1 0xA0 SHL SUB PUSH1 0x1 SLOAD AND CALLER EQ PUSH2 0xD0A JUMP JUMPDEST PUSH1 0x40 MLOAD PUSH2 0x94E DUP2 PUSH2 0xC25 JUMP JUMPDEST PUSH1 0x4 CALLDATALOAD DUP2 MSTORE PUSH1 0x44 CALLDATALOAD PUSH1 0x20 DUP3 ADD MSTORE PUSH1 0x24 CALLDATALOAD PUSH1 0x40 DUP3 ADD MSTORE PUSH1 0x0 PUSH1 0x60 DUP3 ADD MSTORE PUSH1 0x0 PUSH1 0x80 DUP3 ADD MSTORE PUSH1 0x0 PUSH1 0xA0 DUP3 ADD MSTORE PUSH1 0x0 PUSH1 0xC0 DUP3 ADD MSTORE PUSH1 0x40 MLOAD DUP1 PUSH1 0x20 DUP2 ADD LT PUSH8 0xFFFFFFFFFFFFFFFF PUSH1 0x20 DUP4 ADD GT OR PUSH2 0xB88 JUMPI PUSH1 0x20 DUP2 ADD PUSH1 0x40 MSTORE PUSH1 0x0 DUP2 MSTORE PUSH1 0xE0 DUP3 ADD MSTORE PUSH1 0x4 CALLDATALOAD PUSH1 0x0 MSTORE PUSH1 0x0 PUSH1 0x20 MSTORE PUSH1 0x40 PUSH1 0x0 KECCAK256 DUP2 MLOAD DUP2 SSTORE PUSH1 0x20 DUP3 ADD MLOAD PUSH1 0x1 DUP3 ADD SSTORE PUSH1 0x40 DUP3 ADD MLOAD PUSH1 0x2 DUP3 ADD SSTORE PUSH1 0x3 DUP2 ADD PUSH1 0x1 DUP1 PUSH1 0xA0 SHL SUB PUSH1 0x60 DUP5 ADD MLOAD AND PUSH12 0xFFFFFFFFFFFFFFFFFFFFFFFF PUSH1 0xA0 SHL DUP3 SLOAD AND OR SWAP1 SSTORE PUSH1 0x80 DUP3 ADD MLOAD PUSH1 0x4 DUP3 ADD SSTORE PUSH1 0x5 DUP2 ADD SWAP1 PUSH1 0xA0 DUP4 ADD MLOAD ISZERO ISZERO SWAP1 DUP3 SLOAD SWAP3 PUSH1 0xC0 DUP6 ADD MLOAD SWAP3 PUSH1 0x4 DUP5 LT ISZERO PUSH2 0x554 JUMPI PUSH1 0xE0 SWAP5 PUSH1 0xFF PUSH2 0xFF00 PUSH1 0x6 SWAP7 PUSH1 0x8 SHL AND SWAP3 AND SWAP1 PUSH2 0xFFFF NOT AND OR OR SWAP1 SSTORE ADD SWAP2 ADD MLOAD SWAP1 DUP2 MLOAD PUSH8 0xFFFFFFFFFFFFFFFF DUP2 GT PUSH2 0xB88 JUMPI PUSH2 0xA5E DUP3 SLOAD PUSH2 0xBEB JUMP JUMPDEST PUSH1 0x1F DUP2 GT PUSH2 0xB40 JUMPI JUMPDEST POP PUSH1 0x20 SWAP3 PUSH1 0x1F DUP3 GT PUSH1 0x1 EQ PUSH2 0xADC JUMPI SWAP3 DUP2 SWAP3 SWAP4 PUSH1 0x0 SWAP3 PUSH2 0xAD1 JUMPI JUMPDEST POP POP DUP2 PUSH1 0x1 SHL SWAP2 PUSH1 0x0 NOT SWAP1 PUSH1 0x3 SHL SHR NOT AND OR SWAP1 SSTORE JUMPDEST PUSH1 0x40 MLOAD PUSH1 0x24 CALLDATALOAD DUP2 MSTORE PUSH1 0x44 CALLDATALOAD PUSH1 0x20 DUP3 ADD MSTORE PUSH32 0xBF8F9D75D6C1819628347DE72B00216C259FD8F658D0EE076A1AB176F4327FAF PUSH1 0x40 PUSH1 0x4 CALLDATALOAD SWAP3 LOG2 STOP JUMPDEST ADD MLOAD SWAP1 POP DUP4 DUP1 PUSH2 0xA82 JUMP JUMPDEST PUSH1 0x1F NOT DUP3 AND SWAP4 DUP4 PUSH1 0x0 MSTORE PUSH1 0x20 PUSH1 0x0 KECCAK256 SWAP2 PUSH1 0x0 JUMPDEST DUP7 DUP2 LT PUSH2 0xB28 JUMPI POP DUP4 PUSH1 0x1 SWAP6 SWAP7 LT PUSH2 0xB0F JUMPI JUMPDEST POP POP POP DUP2 SHL ADD SWAP1 SSTORE PUSH2 0xA97 JUMP JUMPDEST ADD MLOAD PUSH1 0x0 NOT PUSH1 0xF8 DUP5 PUSH1 0x3 SHL AND SHR NOT AND SWAP1 SSTORE DUP4 DUP1 DUP1 PUSH2 0xB02 JUMP JUMPDEST SWAP2 SWAP3 PUSH1 0x20 PUSH1 0x1 DUP2 SWAP3 DUP7 DUP6 ADD MLOAD DUP2 SSTORE ADD SWAP5 ADD SWAP3 ADD PUSH2 0xAEF JUMP JUMPDEST DUP3 PUSH1 0x0 MSTORE PUSH1 0x20 PUSH1 0x0 KECCAK256 PUSH1 0x1F DUP4 ADD PUSH1 0x5 SHR DUP2 ADD SWAP2 PUSH1 0x20 DUP5 LT PUSH2 0xB7E JUMPI JUMPDEST PUSH1 0x1F ADD PUSH1 0x5 SHR ADD SWAP1 JUMPDEST DUP2 DUP2 LT PUSH2 0xB72 JUMPI POP PUSH2 0xA67 JUMP JUMPDEST PUSH1 0x0 DUP2 SSTORE PUSH1 0x1 ADD PUSH2 0xB65 JUMP JUMPDEST SWAP1 SWAP2 POP DUP2 SWAP1 PUSH2 0xB5C JUMP JUMPDEST PUSH4 0x4E487B71 PUSH1 0xE0 SHL PUSH1 0x0 MSTORE PUSH1 0x41 PUSH1 0x4 MSTORE PUSH1 0x24 PUSH1 0x0 REVERT JUMPDEST SWAP1 PUSH1 0x4 DUP3 LT ISZERO PUSH2 0x554 JUMPI MSTORE JUMP JUMPDEST SWAP2 SWAP1 DUP3 MLOAD SWAP3 DUP4 DUP3 MSTORE PUSH1 0x0 JUMPDEST DUP5 DUP2 LT PUSH2 0xBD7 JUMPI POP POP DUP3 PUSH1 0x0 PUSH1 0x20 DUP1 SWAP5 SWAP6 DUP5 ADD ADD MSTORE PUSH1 0x1F DUP1 NOT SWAP2 ADD AND ADD ADD SWAP1 JUMP JUMPDEST PUSH1 0x20 DUP2 DUP4 ADD DUP2 ADD MLOAD DUP5 DUP4 ADD DUP3 ADD MSTORE ADD PUSH2 0xBB6 JUMP JUMPDEST SWAP1 PUSH1 0x1 DUP3 DUP2 SHR SWAP3 AND DUP1 ISZERO PUSH2 0xC1B JUMPI JUMPDEST PUSH1 0x20 DUP4 LT EQ PUSH2 0xC05 JUMPI JUMP JUMPDEST PUSH4 0x4E487B71 PUSH1 0xE0 SHL PUSH1 0x0 MSTORE PUSH1 0x22 PUSH1 0x4 MSTORE PUSH1 0x24 PUSH1 0x0 REVERT JUMPDEST SWAP2 PUSH1 0x7F AND SWAP2 PUSH2 0xBFA JUMP JUMPDEST PUSH2 0x100 DUP2 ADD SWAP1 DUP2 LT PUSH8 0xFFFFFFFFFFFFFFFF DUP3 GT OR PUSH2 0xB88 JUMPI PUSH1 0x40 MSTORE JUMP JUMPDEST SWAP1 PUSH1 0x1F DUP1 NOT SWAP2 ADD AND DUP2 ADD SWAP1 DUP2 LT PUSH8 0xFFFFFFFFFFFFFFFF DUP3 GT OR PUSH2 0xB88 JUMPI PUSH1 0x40 MSTORE JUMP JUMPDEST SWAP1 PUSH1 0x40 MLOAD SWAP2 DUP3 PUSH1 0x0 DUP3 SLOAD SWAP3 PUSH2 0xC78 DUP5 PUSH2 0xBEB JUMP JUMPDEST SWAP1 DUP2 DUP5 MSTORE PUSH1 0x1 SWAP5 DUP6 DUP2 AND SWAP1 DUP2 PUSH1 0x0 EQ PUSH2 0xCE7 JUMPI POP PUSH1 0x1 EQ PUSH2 0xCA4 JUMPI JUMPDEST POP POP PUSH2 0xCA2 SWAP3 POP SUB DUP4 PUSH2 0xC42 JUMP JUMPDEST JUMP JUMPDEST SWAP1 SWAP4 SWAP2 POP PUSH1 0x0 MSTORE PUSH1 0x20 SWAP1 DUP2 PUSH1 0x0 KECCAK256 SWAP4 PUSH1 0x0 SWAP2 JUMPDEST DUP2 DUP4 LT PUSH2 0xCCF JUMPI POP POP PUSH2 0xCA2 SWAP4 POP DUP3 ADD ADD CODESIZE DUP1 PUSH2 0xC94 JUMP JUMPDEST DUP6 SLOAD DUP9 DUP5 ADD DUP6 ADD MSTORE SWAP5 DUP6 ADD SWAP5 DUP8 SWAP5 POP SWAP2 DUP4 ADD SWAP2 PUSH2 0xCB7 JUMP JUMPDEST SWAP2 POP POP PUSH2 0xCA2 SWAP5 POP PUSH1 0x20 SWAP3 POP PUSH1 0xFF NOT AND DUP3 DUP5 ADD MSTORE ISZERO ISZERO PUSH1 0x5 SHL DUP3 ADD ADD CODESIZE DUP1 PUSH2 0xC94 JUMP JUMPDEST ISZERO PUSH2 0xD11 JUMPI JUMP JUMPDEST PUSH1 0x40 MLOAD PUSH3 0x461BCD PUSH1 0xE5 SHL DUP2 MSTORE PUSH1 0x20 PUSH1 0x4 DUP3 ADD MSTORE PUSH1 0x22 PUSH1 0x24 DUP3 ADD MSTORE PUSH32 0x4F6E6C79206F776E65722063616E20706572666F726D20746869732061637469 PUSH1 0x44 DUP3 ADD MSTORE PUSH2 0x37B7 PUSH1 0xF1 SHL PUSH1 0x64 DUP3 ADD MSTORE PUSH1 0x84 SWAP1 REVERT INVALID LOG2 PUSH5 0x6970667358 0x22 SLT KECCAK256 SLT GASLIMIT ISZERO DUP16 0xCF 0xEE GASLIMIT 0xB6 DUP8 PUSH25 0xD9FC869C3BBC577358C432E4A89555E5E9136186B77264736F PUSH13 0x63430008130033000000000000 "},"methodIdentifiers":{"authorizeBuyer(address)":"ffe5f432","authorizedBuyers(address)":"97d84aae","batches(uint256)":"b32c4d8d","buyBatch(uint256)":"746d1e57","checkQuality(uint256,string)":"c465a8a6","getBatchDetails(uint256)":"9d47dcc0","markAsExported(uint256)":"94651d4b","owner()":"8da5cb5b","receiveBatch(uint256,uint256,uint256)":"5893c2b2"}}}}}